{
  "_format": "hh-sol-artifact-1",
  "contractName": "MyErc1155",
  "sourceName": "contracts/ERC1155.sol",
  "abi": [
    {
      "inputs": [],
      "stateMutability": "nonpayable",
      "type": "constructor"
    },
    {
      "anonymous": false,
      "inputs": [
        {
          "indexed": true,
          "internalType": "address",
          "name": "account",
          "type": "address"
        },
        {
          "indexed": true,
          "internalType": "address",
          "name": "operator",
          "type": "address"
        },
        {
          "indexed": false,
          "internalType": "bool",
          "name": "approved",
          "type": "bool"
        }
      ],
      "name": "ApprovalForAll",
      "type": "event"
    },
    {
      "anonymous": false,
      "inputs": [
        {
          "indexed": true,
          "internalType": "address",
          "name": "previousOwner",
          "type": "address"
        },
        {
          "indexed": true,
          "internalType": "address",
          "name": "newOwner",
          "type": "address"
        }
      ],
      "name": "OwnershipTransferred",
      "type": "event"
    },
    {
      "anonymous": false,
      "inputs": [
        {
          "indexed": true,
          "internalType": "address",
          "name": "operator",
          "type": "address"
        },
        {
          "indexed": true,
          "internalType": "address",
          "name": "from",
          "type": "address"
        },
        {
          "indexed": true,
          "internalType": "address",
          "name": "to",
          "type": "address"
        },
        {
          "indexed": false,
          "internalType": "uint256[]",
          "name": "ids",
          "type": "uint256[]"
        },
        {
          "indexed": false,
          "internalType": "uint256[]",
          "name": "values",
          "type": "uint256[]"
        }
      ],
      "name": "TransferBatch",
      "type": "event"
    },
    {
      "anonymous": false,
      "inputs": [
        {
          "indexed": true,
          "internalType": "address",
          "name": "operator",
          "type": "address"
        },
        {
          "indexed": true,
          "internalType": "address",
          "name": "from",
          "type": "address"
        },
        {
          "indexed": true,
          "internalType": "address",
          "name": "to",
          "type": "address"
        },
        {
          "indexed": false,
          "internalType": "uint256",
          "name": "id",
          "type": "uint256"
        },
        {
          "indexed": false,
          "internalType": "uint256",
          "name": "value",
          "type": "uint256"
        }
      ],
      "name": "TransferSingle",
      "type": "event"
    },
    {
      "anonymous": false,
      "inputs": [
        {
          "indexed": false,
          "internalType": "string",
          "name": "value",
          "type": "string"
        },
        {
          "indexed": true,
          "internalType": "uint256",
          "name": "id",
          "type": "uint256"
        }
      ],
      "name": "URI",
      "type": "event"
    },
    {
      "inputs": [
        {
          "internalType": "address",
          "name": "account",
          "type": "address"
        },
        {
          "internalType": "uint256",
          "name": "id",
          "type": "uint256"
        }
      ],
      "name": "balanceOf",
      "outputs": [
        {
          "internalType": "uint256",
          "name": "",
          "type": "uint256"
        }
      ],
      "stateMutability": "view",
      "type": "function"
    },
    {
      "inputs": [
        {
          "internalType": "address[]",
          "name": "accounts",
          "type": "address[]"
        },
        {
          "internalType": "uint256[]",
          "name": "ids",
          "type": "uint256[]"
        }
      ],
      "name": "balanceOfBatch",
      "outputs": [
        {
          "internalType": "uint256[]",
          "name": "",
          "type": "uint256[]"
        }
      ],
      "stateMutability": "view",
      "type": "function"
    },
    {
      "inputs": [
        {
          "internalType": "address",
          "name": "account",
          "type": "address"
        },
        {
          "internalType": "address",
          "name": "operator",
          "type": "address"
        }
      ],
      "name": "isApprovedForAll",
      "outputs": [
        {
          "internalType": "bool",
          "name": "",
          "type": "bool"
        }
      ],
      "stateMutability": "view",
      "type": "function"
    },
    {
      "inputs": [
        {
          "internalType": "address",
          "name": "account",
          "type": "address"
        },
        {
          "internalType": "uint256",
          "name": "id",
          "type": "uint256"
        },
        {
          "internalType": "uint256",
          "name": "amount",
          "type": "uint256"
        },
        {
          "internalType": "bytes",
          "name": "data",
          "type": "bytes"
        }
      ],
      "name": "mint",
      "outputs": [],
      "stateMutability": "nonpayable",
      "type": "function"
    },
    {
      "inputs": [
        {
          "internalType": "address",
          "name": "to",
          "type": "address"
        },
        {
          "internalType": "uint256[]",
          "name": "ids",
          "type": "uint256[]"
        },
        {
          "internalType": "uint256[]",
          "name": "amounts",
          "type": "uint256[]"
        },
        {
          "internalType": "bytes",
          "name": "data",
          "type": "bytes"
        }
      ],
      "name": "mintBatch",
      "outputs": [],
      "stateMutability": "nonpayable",
      "type": "function"
    },
    {
      "inputs": [],
      "name": "owner",
      "outputs": [
        {
          "internalType": "address",
          "name": "",
          "type": "address"
        }
      ],
      "stateMutability": "view",
      "type": "function"
    },
    {
      "inputs": [],
      "name": "renounceOwnership",
      "outputs": [],
      "stateMutability": "nonpayable",
      "type": "function"
    },
    {
      "inputs": [
        {
          "internalType": "address",
          "name": "from",
          "type": "address"
        },
        {
          "internalType": "address",
          "name": "to",
          "type": "address"
        },
        {
          "internalType": "uint256[]",
          "name": "ids",
          "type": "uint256[]"
        },
        {
          "internalType": "uint256[]",
          "name": "amounts",
          "type": "uint256[]"
        },
        {
          "internalType": "bytes",
          "name": "data",
          "type": "bytes"
        }
      ],
      "name": "safeBatchTransferFrom",
      "outputs": [],
      "stateMutability": "nonpayable",
      "type": "function"
    },
    {
      "inputs": [
        {
          "internalType": "address",
          "name": "from",
          "type": "address"
        },
        {
          "internalType": "address",
          "name": "to",
          "type": "address"
        },
        {
          "internalType": "uint256",
          "name": "id",
          "type": "uint256"
        },
        {
          "internalType": "uint256",
          "name": "amount",
          "type": "uint256"
        },
        {
          "internalType": "bytes",
          "name": "data",
          "type": "bytes"
        }
      ],
      "name": "safeTransferFrom",
      "outputs": [],
      "stateMutability": "nonpayable",
      "type": "function"
    },
    {
      "inputs": [
        {
          "internalType": "address",
          "name": "operator",
          "type": "address"
        },
        {
          "internalType": "bool",
          "name": "approved",
          "type": "bool"
        }
      ],
      "name": "setApprovalForAll",
      "outputs": [],
      "stateMutability": "nonpayable",
      "type": "function"
    },
    {
      "inputs": [
        {
          "internalType": "string",
          "name": "newuri",
          "type": "string"
        }
      ],
      "name": "setURI",
      "outputs": [],
      "stateMutability": "nonpayable",
      "type": "function"
    },
    {
      "inputs": [
        {
          "internalType": "bytes4",
          "name": "interfaceId",
          "type": "bytes4"
        }
      ],
      "name": "supportsInterface",
      "outputs": [
        {
          "internalType": "bool",
          "name": "",
          "type": "bool"
        }
      ],
      "stateMutability": "view",
      "type": "function"
    },
    {
      "inputs": [
        {
          "internalType": "address",
          "name": "newOwner",
          "type": "address"
        }
      ],
      "name": "transferOwnership",
      "outputs": [],
      "stateMutability": "nonpayable",
      "type": "function"
    },
    {
      "inputs": [
        {
          "internalType": "uint256",
          "name": "",
          "type": "uint256"
        }
      ],
      "name": "uri",
      "outputs": [
        {
          "internalType": "string",
          "name": "",
          "type": "string"
        }
      ],
      "stateMutability": "view",
      "type": "function"
    }
  ],
  "bytecode": "0x60806040523480156200001157600080fd5b506040518060200160405280600081525062000033816200005a60201b60201c565b5062000054620000486200007660201b60201c565b6200007e60201b60201c565b62000259565b80600290805190602001906200007292919062000144565b5050565b600033905090565b6000600360009054906101000a900473ffffffffffffffffffffffffffffffffffffffff16905081600360006101000a81548173ffffffffffffffffffffffffffffffffffffffff021916908373ffffffffffffffffffffffffffffffffffffffff1602179055508173ffffffffffffffffffffffffffffffffffffffff168173ffffffffffffffffffffffffffffffffffffffff167f8be0079c531659141344cd1fd0a4f28419497f9722a3daafe3b4186f6b6457e060405160405180910390a35050565b8280546200015290620001f4565b90600052602060002090601f016020900481019282620001765760008555620001c2565b82601f106200019157805160ff1916838001178555620001c2565b82800160010185558215620001c2579182015b82811115620001c1578251825591602001919060010190620001a4565b5b509050620001d19190620001d5565b5090565b5b80821115620001f0576000816000905550600101620001d6565b5090565b600060028204905060018216806200020d57607f821691505b602082108114156200022457620002236200022a565b5b50919050565b7f4e487b7100000000000000000000000000000000000000000000000000000000600052602260045260246000fd5b6133f180620002696000396000f3fe608060405234801561001057600080fd5b50600436106100e95760003560e01c8063715018a61161008c578063a22cb46511610066578063a22cb46514610246578063e985e9c514610262578063f242432a14610292578063f2fde38b146102ae576100e9565b8063715018a614610202578063731133e91461020c5780638da5cb5b14610228576100e9565b80630e89341c116100c85780630e89341c1461016a5780631f7fdffa1461019a5780632eb2c2d6146101b65780634e1273f4146101d2576100e9565b8062fdd58e146100ee57806301ffc9a71461011e57806302fe53051461014e575b600080fd5b610108600480360381019061010391906122f6565b6102ca565b6040516101159190612ad3565b60405180910390f35b61013860048036038101906101339190612419565b610393565b60405161014591906128f6565b60405180910390f35b6101686004803603810190610163919061246b565b610475565b005b610184600480360381019061017f91906124ac565b6104fd565b6040516101919190612911565b60405180910390f35b6101b460048036038101906101af919061220f565b610591565b005b6101d060048036038101906101cb91906120c1565b61061f565b005b6101ec60048036038101906101e791906123ad565b6106c0565b6040516101f9919061289d565b60405180910390f35b61020a610871565b005b61022660048036038101906102219190612332565b6108f9565b005b610230610987565b60405161023d91906127c0565b60405180910390f35b610260600480360381019061025b91906122ba565b6109b1565b005b61027c60048036038101906102779190612085565b6109c7565b60405161028991906128f6565b60405180910390f35b6102ac60048036038101906102a79190612180565b610a5b565b005b6102c860048036038101906102c3919061205c565b610afc565b005b60008073ffffffffffffffffffffffffffffffffffffffff168373ffffffffffffffffffffffffffffffffffffffff16141561033b576040517f08c379a000000000000000000000000000000000000000000000000000000000815260040161033290612973565b60405180910390fd5b60008083815260200190815260200160002060008473ffffffffffffffffffffffffffffffffffffffff1673ffffffffffffffffffffffffffffffffffffffff16815260200190815260200160002054905092915050565b60007fd9b67a26000000000000000000000000000000000000000000000000000000007bffffffffffffffffffffffffffffffffffffffffffffffffffffffff1916827bffffffffffffffffffffffffffffffffffffffffffffffffffffffff1916148061045e57507f0e89341c000000000000000000000000000000000000000000000000000000007bffffffffffffffffffffffffffffffffffffffffffffffffffffffff1916827bffffffffffffffffffffffffffffffffffffffffffffffffffffffff1916145b8061046e575061046d82610bf4565b5b9050919050565b61047d610c5e565b73ffffffffffffffffffffffffffffffffffffffff1661049b610987565b73ffffffffffffffffffffffffffffffffffffffff16146104f1576040517f08c379a00000000000000000000000000000000000000000000000000000000081526004016104e890612a33565b60405180910390fd5b6104fa81610c66565b50565b60606002805461050c90612d73565b80601f016020809104026020016040519081016040528092919081815260200182805461053890612d73565b80156105855780601f1061055a57610100808354040283529160200191610585565b820191906000526020600020905b81548152906001019060200180831161056857829003601f168201915b50505050509050919050565b610599610c5e565b73ffffffffffffffffffffffffffffffffffffffff166105b7610987565b73ffffffffffffffffffffffffffffffffffffffff161461060d576040517f08c379a000000000000000000000000000000000000000000000000000000000815260040161060490612a33565b60405180910390fd5b61061984848484610c80565b50505050565b610627610c5e565b73ffffffffffffffffffffffffffffffffffffffff168573ffffffffffffffffffffffffffffffffffffffff16148061066d575061066c85610667610c5e565b6109c7565b5b6106ac576040517f08c379a00000000000000000000000000000000000000000000000000000000081526004016106a3906129f3565b60405180910390fd5b6106b98585858585610eea565b5050505050565b60608151835114610706576040517f08c379a00000000000000000000000000000000000000000000000000000000081526004016106fd90612a73565b60405180910390fd5b6000835167ffffffffffffffff811115610749577f4e487b7100000000000000000000000000000000000000000000000000000000600052604160045260246000fd5b6040519080825280602002602001820160405280156107775781602001602082028036833780820191505090505b50905060005b8451811015610866576108108582815181106107c2577f4e487b7100000000000000000000000000000000000000000000000000000000600052603260045260246000fd5b6020026020010151858381518110610803577f4e487b7100000000000000000000000000000000000000000000000000000000600052603260045260246000fd5b60200260200101516102ca565b828281518110610849577f4e487b7100000000000000000000000000000000000000000000000000000000600052603260045260246000fd5b6020026020010181815250508061085f90612dd6565b905061077d565b508091505092915050565b610879610c5e565b73ffffffffffffffffffffffffffffffffffffffff16610897610987565b73ffffffffffffffffffffffffffffffffffffffff16146108ed576040517f08c379a00000000000000000000000000000000000000000000000000000000081526004016108e490612a33565b60405180910390fd5b6108f7600061124a565b565b610901610c5e565b73ffffffffffffffffffffffffffffffffffffffff1661091f610987565b73ffffffffffffffffffffffffffffffffffffffff1614610975576040517f08c379a000000000000000000000000000000000000000000000000000000000815260040161096c90612a33565b60405180910390fd5b61098184848484611310565b50505050565b6000600360009054906101000a900473ffffffffffffffffffffffffffffffffffffffff16905090565b6109c36109bc610c5e565b83836114a6565b5050565b6000600160008473ffffffffffffffffffffffffffffffffffffffff1673ffffffffffffffffffffffffffffffffffffffff16815260200190815260200160002060008373ffffffffffffffffffffffffffffffffffffffff1673ffffffffffffffffffffffffffffffffffffffff16815260200190815260200160002060009054906101000a900460ff16905092915050565b610a63610c5e565b73ffffffffffffffffffffffffffffffffffffffff168573ffffffffffffffffffffffffffffffffffffffff161480610aa95750610aa885610aa3610c5e565b6109c7565b5b610ae8576040517f08c379a0000000000000000000000000000000000000000000000000000000008152600401610adf906129b3565b60405180910390fd5b610af58585858585611613565b5050505050565b610b04610c5e565b73ffffffffffffffffffffffffffffffffffffffff16610b22610987565b73ffffffffffffffffffffffffffffffffffffffff1614610b78576040517f08c379a0000000000000000000000000000000000000000000000000000000008152600401610b6f90612a33565b60405180910390fd5b600073ffffffffffffffffffffffffffffffffffffffff168173ffffffffffffffffffffffffffffffffffffffff161415610be8576040517f08c379a0000000000000000000000000000000000000000000000000000000008152600401610bdf90612993565b60405180910390fd5b610bf18161124a565b50565b60007f01ffc9a7000000000000000000000000000000000000000000000000000000007bffffffffffffffffffffffffffffffffffffffffffffffffffffffff1916827bffffffffffffffffffffffffffffffffffffffffffffffffffffffff1916149050919050565b600033905090565b8060029080519060200190610c7c929190611d54565b5050565b600073ffffffffffffffffffffffffffffffffffffffff168473ffffffffffffffffffffffffffffffffffffffff161415610cf0576040517f08c379a0000000000000000000000000000000000000000000000000000000008152600401610ce790612ab3565b60405180910390fd5b8151835114610d34576040517f08c379a0000000000000000000000000000000000000000000000000000000008152600401610d2b90612a93565b60405180910390fd5b6000610d3e610c5e565b9050610d4f81600087878787611895565b60005b8451811015610e5457838181518110610d94577f4e487b7100000000000000000000000000000000000000000000000000000000600052603260045260246000fd5b6020026020010151600080878481518110610dd8577f4e487b7100000000000000000000000000000000000000000000000000000000600052603260045260246000fd5b6020026020010151815260200190815260200160002060008873ffffffffffffffffffffffffffffffffffffffff1673ffffffffffffffffffffffffffffffffffffffff1681526020019081526020016000206000828254610e3a9190612c67565b925050819055508080610e4c90612dd6565b915050610d52565b508473ffffffffffffffffffffffffffffffffffffffff16600073ffffffffffffffffffffffffffffffffffffffff168273ffffffffffffffffffffffffffffffffffffffff167f4a39dc06d4c0dbc64b70af90fd698a233a518aa5d07e595d983b8c0526c8f7fb8787604051610ecc9291906128bf565b60405180910390a4610ee38160008787878761189d565b5050505050565b8151835114610f2e576040517f08c379a0000000000000000000000000000000000000000000000000000000008152600401610f2590612a93565b60405180910390fd5b600073ffffffffffffffffffffffffffffffffffffffff168473ffffffffffffffffffffffffffffffffffffffff161415610f9e576040517f08c379a0000000000000000000000000000000000000000000000000000000008152600401610f95906129d3565b60405180910390fd5b6000610fa8610c5e565b9050610fb8818787878787611895565b60005b84518110156111b5576000858281518110610fff577f4e487b7100000000000000000000000000000000000000000000000000000000600052603260045260246000fd5b602002602001015190506000858381518110611044577f4e487b7100000000000000000000000000000000000000000000000000000000600052603260045260246000fd5b60200260200101519050600080600084815260200190815260200160002060008b73ffffffffffffffffffffffffffffffffffffffff1673ffffffffffffffffffffffffffffffffffffffff168152602001908152602001600020549050818110156110e5576040517f08c379a00000000000000000000000000000000000000000000000000000000081526004016110dc90612a13565b60405180910390fd5b81810360008085815260200190815260200160002060008c73ffffffffffffffffffffffffffffffffffffffff1673ffffffffffffffffffffffffffffffffffffffff168152602001908152602001600020819055508160008085815260200190815260200160002060008b73ffffffffffffffffffffffffffffffffffffffff1673ffffffffffffffffffffffffffffffffffffffff168152602001908152602001600020600082825461119a9190612c67565b92505081905550505050806111ae90612dd6565b9050610fbb565b508473ffffffffffffffffffffffffffffffffffffffff168673ffffffffffffffffffffffffffffffffffffffff168273ffffffffffffffffffffffffffffffffffffffff167f4a39dc06d4c0dbc64b70af90fd698a233a518aa5d07e595d983b8c0526c8f7fb878760405161122c9291906128bf565b60405180910390a461124281878787878761189d565b505050505050565b6000600360009054906101000a900473ffffffffffffffffffffffffffffffffffffffff16905081600360006101000a81548173ffffffffffffffffffffffffffffffffffffffff021916908373ffffffffffffffffffffffffffffffffffffffff1602179055508173ffffffffffffffffffffffffffffffffffffffff168173ffffffffffffffffffffffffffffffffffffffff167f8be0079c531659141344cd1fd0a4f28419497f9722a3daafe3b4186f6b6457e060405160405180910390a35050565b600073ffffffffffffffffffffffffffffffffffffffff168473ffffffffffffffffffffffffffffffffffffffff161415611380576040517f08c379a000000000000000000000000000000000000000000000000000000000815260040161137790612ab3565b60405180910390fd5b600061138a610c5e565b90506113ab8160008761139c88611a84565b6113a588611a84565b87611895565b8260008086815260200190815260200160002060008773ffffffffffffffffffffffffffffffffffffffff1673ffffffffffffffffffffffffffffffffffffffff168152602001908152602001600020600082825461140a9190612c67565b925050819055508473ffffffffffffffffffffffffffffffffffffffff16600073ffffffffffffffffffffffffffffffffffffffff168273ffffffffffffffffffffffffffffffffffffffff167fc3d58168c5ae7397731d063d5bbf3d657854427343f4c083240f7aacaa2d0f628787604051611488929190612aee565b60405180910390a461149f81600087878787611b4a565b5050505050565b8173ffffffffffffffffffffffffffffffffffffffff168373ffffffffffffffffffffffffffffffffffffffff161415611515576040517f08c379a000000000000000000000000000000000000000000000000000000000815260040161150c90612a53565b60405180910390fd5b80600160008573ffffffffffffffffffffffffffffffffffffffff1673ffffffffffffffffffffffffffffffffffffffff16815260200190815260200160002060008473ffffffffffffffffffffffffffffffffffffffff1673ffffffffffffffffffffffffffffffffffffffff16815260200190815260200160002060006101000a81548160ff0219169083151502179055508173ffffffffffffffffffffffffffffffffffffffff168373ffffffffffffffffffffffffffffffffffffffff167f17307eab39ab6107e8899845ad3d59bd9653f200f220920489ca2b5937696c318360405161160691906128f6565b60405180910390a3505050565b600073ffffffffffffffffffffffffffffffffffffffff168473ffffffffffffffffffffffffffffffffffffffff161415611683576040517f08c379a000000000000000000000000000000000000000000000000000000000815260040161167a906129d3565b60405180910390fd5b600061168d610c5e565b90506116ad81878761169e88611a84565b6116a788611a84565b87611895565b600080600086815260200190815260200160002060008873ffffffffffffffffffffffffffffffffffffffff1673ffffffffffffffffffffffffffffffffffffffff16815260200190815260200160002054905083811015611744576040517f08c379a000000000000000000000000000000000000000000000000000000000815260040161173b90612a13565b60405180910390fd5b83810360008087815260200190815260200160002060008973ffffffffffffffffffffffffffffffffffffffff1673ffffffffffffffffffffffffffffffffffffffff168152602001908152602001600020819055508360008087815260200190815260200160002060008873ffffffffffffffffffffffffffffffffffffffff1673ffffffffffffffffffffffffffffffffffffffff16815260200190815260200160002060008282546117f99190612c67565b925050819055508573ffffffffffffffffffffffffffffffffffffffff168773ffffffffffffffffffffffffffffffffffffffff168373ffffffffffffffffffffffffffffffffffffffff167fc3d58168c5ae7397731d063d5bbf3d657854427343f4c083240f7aacaa2d0f628888604051611876929190612aee565b60405180910390a461188c828888888888611b4a565b50505050505050565b505050505050565b6118bc8473ffffffffffffffffffffffffffffffffffffffff16611d31565b15611a7c578373ffffffffffffffffffffffffffffffffffffffff1663bc197c8187878686866040518663ffffffff1660e01b81526004016119029594939291906127db565b602060405180830381600087803b15801561191c57600080fd5b505af192505050801561194d57506040513d601f19601f8201168201806040525081019061194a9190612442565b60015b6119f357611959612eac565b806308c379a014156119b6575061196e6132c9565b8061197957506119b8565b806040517f08c379a00000000000000000000000000000000000000000000000000000000081526004016119ad9190612911565b60405180910390fd5b505b6040517f08c379a00000000000000000000000000000000000000000000000000000000081526004016119ea90612933565b60405180910390fd5b63bc197c8160e01b7bffffffffffffffffffffffffffffffffffffffffffffffffffffffff1916817bffffffffffffffffffffffffffffffffffffffffffffffffffffffff191614611a7a576040517f08c379a0000000000000000000000000000000000000000000000000000000008152600401611a7190612953565b60405180910390fd5b505b505050505050565b60606000600167ffffffffffffffff811115611ac9577f4e487b7100000000000000000000000000000000000000000000000000000000600052604160045260246000fd5b604051908082528060200260200182016040528015611af75781602001602082028036833780820191505090505b5090508281600081518110611b35577f4e487b7100000000000000000000000000000000000000000000000000000000600052603260045260246000fd5b60200260200101818152505080915050919050565b611b698473ffffffffffffffffffffffffffffffffffffffff16611d31565b15611d29578373ffffffffffffffffffffffffffffffffffffffff1663f23a6e6187878686866040518663ffffffff1660e01b8152600401611baf959493929190612843565b602060405180830381600087803b158015611bc957600080fd5b505af1925050508015611bfa57506040513d601f19601f82011682018060405250810190611bf79190612442565b60015b611ca057611c06612eac565b806308c379a01415611c635750611c1b6132c9565b80611c265750611c65565b806040517f08c379a0000000000000000000000000000000000000000000000000000000008152600401611c5a9190612911565b60405180910390fd5b505b6040517f08c379a0000000000000000000000000000000000000000000000000000000008152600401611c9790612933565b60405180910390fd5b63f23a6e6160e01b7bffffffffffffffffffffffffffffffffffffffffffffffffffffffff1916817bffffffffffffffffffffffffffffffffffffffffffffffffffffffff191614611d27576040517f08c379a0000000000000000000000000000000000000000000000000000000008152600401611d1e90612953565b60405180910390fd5b505b505050505050565b6000808273ffffffffffffffffffffffffffffffffffffffff163b119050919050565b828054611d6090612d73565b90600052602060002090601f016020900481019282611d825760008555611dc9565b82601f10611d9b57805160ff1916838001178555611dc9565b82800160010185558215611dc9579182015b82811115611dc8578251825591602001919060010190611dad565b5b509050611dd69190611dda565b5090565b5b80821115611df3576000816000905550600101611ddb565b5090565b6000611e0a611e0584612b3c565b612b17565b90508083825260208201905082856020860282011115611e2957600080fd5b60005b85811015611e595781611e3f8882611f4b565b845260208401935060208301925050600181019050611e2c565b5050509392505050565b6000611e76611e7184612b68565b612b17565b90508083825260208201905082856020860282011115611e9557600080fd5b60005b85811015611ec55781611eab8882612047565b845260208401935060208301925050600181019050611e98565b5050509392505050565b6000611ee2611edd84612b94565b612b17565b905082815260208101848484011115611efa57600080fd5b611f05848285612d31565b509392505050565b6000611f20611f1b84612bc5565b612b17565b905082815260208101848484011115611f3857600080fd5b611f43848285612d31565b509392505050565b600081359050611f5a8161335f565b92915050565b600082601f830112611f7157600080fd5b8135611f81848260208601611df7565b91505092915050565b600082601f830112611f9b57600080fd5b8135611fab848260208601611e63565b91505092915050565b600081359050611fc381613376565b92915050565b600081359050611fd88161338d565b92915050565b600081519050611fed8161338d565b92915050565b600082601f83011261200457600080fd5b8135612014848260208601611ecf565b91505092915050565b600082601f83011261202e57600080fd5b813561203e848260208601611f0d565b91505092915050565b600081359050612056816133a4565b92915050565b60006020828403121561206e57600080fd5b600061207c84828501611f4b565b91505092915050565b6000806040838503121561209857600080fd5b60006120a685828601611f4b565b92505060206120b785828601611f4b565b9150509250929050565b600080600080600060a086880312156120d957600080fd5b60006120e788828901611f4b565b95505060206120f888828901611f4b565b945050604086013567ffffffffffffffff81111561211557600080fd5b61212188828901611f8a565b935050606086013567ffffffffffffffff81111561213e57600080fd5b61214a88828901611f8a565b925050608086013567ffffffffffffffff81111561216757600080fd5b61217388828901611ff3565b9150509295509295909350565b600080600080600060a0868803121561219857600080fd5b60006121a688828901611f4b565b95505060206121b788828901611f4b565b94505060406121c888828901612047565b93505060606121d988828901612047565b925050608086013567ffffffffffffffff8111156121f657600080fd5b61220288828901611ff3565b9150509295509295909350565b6000806000806080858703121561222557600080fd5b600061223387828801611f4b565b945050602085013567ffffffffffffffff81111561225057600080fd5b61225c87828801611f8a565b935050604085013567ffffffffffffffff81111561227957600080fd5b61228587828801611f8a565b925050606085013567ffffffffffffffff8111156122a257600080fd5b6122ae87828801611ff3565b91505092959194509250565b600080604083850312156122cd57600080fd5b60006122db85828601611f4b565b92505060206122ec85828601611fb4565b9150509250929050565b6000806040838503121561230957600080fd5b600061231785828601611f4b565b925050602061232885828601612047565b9150509250929050565b6000806000806080858703121561234857600080fd5b600061235687828801611f4b565b945050602061236787828801612047565b935050604061237887828801612047565b925050606085013567ffffffffffffffff81111561239557600080fd5b6123a187828801611ff3565b91505092959194509250565b600080604083850312156123c057600080fd5b600083013567ffffffffffffffff8111156123da57600080fd5b6123e685828601611f60565b925050602083013567ffffffffffffffff81111561240357600080fd5b61240f85828601611f8a565b9150509250929050565b60006020828403121561242b57600080fd5b600061243984828501611fc9565b91505092915050565b60006020828403121561245457600080fd5b600061246284828501611fde565b91505092915050565b60006020828403121561247d57600080fd5b600082013567ffffffffffffffff81111561249757600080fd5b6124a38482850161201d565b91505092915050565b6000602082840312156124be57600080fd5b60006124cc84828501612047565b91505092915050565b60006124e183836127a2565b60208301905092915050565b6124f681612cbd565b82525050565b600061250782612c06565b6125118185612c34565b935061251c83612bf6565b8060005b8381101561254d57815161253488826124d5565b975061253f83612c27565b925050600181019050612520565b5085935050505092915050565b61256381612ccf565b82525050565b600061257482612c11565b61257e8185612c45565b935061258e818560208601612d40565b61259781612ece565b840191505092915050565b60006125ad82612c1c565b6125b78185612c56565b93506125c7818560208601612d40565b6125d081612ece565b840191505092915050565b60006125e8603483612c56565b91506125f382612eec565b604082019050919050565b600061260b602883612c56565b915061261682612f3b565b604082019050919050565b600061262e602b83612c56565b915061263982612f8a565b604082019050919050565b6000612651602683612c56565b915061265c82612fd9565b604082019050919050565b6000612674602983612c56565b915061267f82613028565b604082019050919050565b6000612697602583612c56565b91506126a282613077565b604082019050919050565b60006126ba603283612c56565b91506126c5826130c6565b604082019050919050565b60006126dd602a83612c56565b91506126e882613115565b604082019050919050565b6000612700602083612c56565b915061270b82613164565b602082019050919050565b6000612723602983612c56565b915061272e8261318d565b604082019050919050565b6000612746602983612c56565b9150612751826131dc565b604082019050919050565b6000612769602883612c56565b91506127748261322b565b604082019050919050565b600061278c602183612c56565b91506127978261327a565b604082019050919050565b6127ab81612d27565b82525050565b6127ba81612d27565b82525050565b60006020820190506127d560008301846124ed565b92915050565b600060a0820190506127f060008301886124ed565b6127fd60208301876124ed565b818103604083015261280f81866124fc565b9050818103606083015261282381856124fc565b905081810360808301526128378184612569565b90509695505050505050565b600060a08201905061285860008301886124ed565b61286560208301876124ed565b61287260408301866127b1565b61287f60608301856127b1565b81810360808301526128918184612569565b90509695505050505050565b600060208201905081810360008301526128b781846124fc565b905092915050565b600060408201905081810360008301526128d981856124fc565b905081810360208301526128ed81846124fc565b90509392505050565b600060208201905061290b600083018461255a565b92915050565b6000602082019050818103600083015261292b81846125a2565b905092915050565b6000602082019050818103600083015261294c816125db565b9050919050565b6000602082019050818103600083015261296c816125fe565b9050919050565b6000602082019050818103600083015261298c81612621565b9050919050565b600060208201905081810360008301526129ac81612644565b9050919050565b600060208201905081810360008301526129cc81612667565b9050919050565b600060208201905081810360008301526129ec8161268a565b9050919050565b60006020820190508181036000830152612a0c816126ad565b9050919050565b60006020820190508181036000830152612a2c816126d0565b9050919050565b60006020820190508181036000830152612a4c816126f3565b9050919050565b60006020820190508181036000830152612a6c81612716565b9050919050565b60006020820190508181036000830152612a8c81612739565b9050919050565b60006020820190508181036000830152612aac8161275c565b9050919050565b60006020820190508181036000830152612acc8161277f565b9050919050565b6000602082019050612ae860008301846127b1565b92915050565b6000604082019050612b0360008301856127b1565b612b1060208301846127b1565b9392505050565b6000612b21612b32565b9050612b2d8282612da5565b919050565b6000604051905090565b600067ffffffffffffffff821115612b5757612b56612e7d565b5b602082029050602081019050919050565b600067ffffffffffffffff821115612b8357612b82612e7d565b5b602082029050602081019050919050565b600067ffffffffffffffff821115612baf57612bae612e7d565b5b612bb882612ece565b9050602081019050919050565b600067ffffffffffffffff821115612be057612bdf612e7d565b5b612be982612ece565b9050602081019050919050565b6000819050602082019050919050565b600081519050919050565b600081519050919050565b600081519050919050565b6000602082019050919050565b600082825260208201905092915050565b600082825260208201905092915050565b600082825260208201905092915050565b6000612c7282612d27565b9150612c7d83612d27565b9250827fffffffffffffffffffffffffffffffffffffffffffffffffffffffffffffffff03821115612cb257612cb1612e1f565b5b828201905092915050565b6000612cc882612d07565b9050919050565b60008115159050919050565b60007fffffffff0000000000000000000000000000000000000000000000000000000082169050919050565b600073ffffffffffffffffffffffffffffffffffffffff82169050919050565b6000819050919050565b82818337600083830152505050565b60005b83811015612d5e578082015181840152602081019050612d43565b83811115612d6d576000848401525b50505050565b60006002820490506001821680612d8b57607f821691505b60208210811415612d9f57612d9e612e4e565b5b50919050565b612dae82612ece565b810181811067ffffffffffffffff82111715612dcd57612dcc612e7d565b5b80604052505050565b6000612de182612d27565b91507fffffffffffffffffffffffffffffffffffffffffffffffffffffffffffffffff821415612e1457612e13612e1f565b5b600182019050919050565b7f4e487b7100000000000000000000000000000000000000000000000000000000600052601160045260246000fd5b7f4e487b7100000000000000000000000000000000000000000000000000000000600052602260045260246000fd5b7f4e487b7100000000000000000000000000000000000000000000000000000000600052604160045260246000fd5b600060033d1115612ecb5760046000803e612ec8600051612edf565b90505b90565b6000601f19601f8301169050919050565b60008160e01c9050919050565b7f455243313135353a207472616e7366657220746f206e6f6e204552433131353560008201527f526563656976657220696d706c656d656e746572000000000000000000000000602082015250565b7f455243313135353a204552433131353552656365697665722072656a6563746560008201527f6420746f6b656e73000000000000000000000000000000000000000000000000602082015250565b7f455243313135353a2062616c616e636520717565727920666f7220746865207a60008201527f65726f2061646472657373000000000000000000000000000000000000000000602082015250565b7f4f776e61626c653a206e6577206f776e657220697320746865207a65726f206160008201527f6464726573730000000000000000000000000000000000000000000000000000602082015250565b7f455243313135353a2063616c6c6572206973206e6f74206f776e6572206e6f7260008201527f20617070726f7665640000000000000000000000000000000000000000000000602082015250565b7f455243313135353a207472616e7366657220746f20746865207a65726f20616460008201527f6472657373000000000000000000000000000000000000000000000000000000602082015250565b7f455243313135353a207472616e736665722063616c6c6572206973206e6f742060008201527f6f776e6572206e6f7220617070726f7665640000000000000000000000000000602082015250565b7f455243313135353a20696e73756666696369656e742062616c616e636520666f60008201527f72207472616e7366657200000000000000000000000000000000000000000000602082015250565b7f4f776e61626c653a2063616c6c6572206973206e6f7420746865206f776e6572600082015250565b7f455243313135353a2073657474696e6720617070726f76616c2073746174757360008201527f20666f722073656c660000000000000000000000000000000000000000000000602082015250565b7f455243313135353a206163636f756e747320616e6420696473206c656e67746860008201527f206d69736d617463680000000000000000000000000000000000000000000000602082015250565b7f455243313135353a2069647320616e6420616d6f756e7473206c656e6774682060008201527f6d69736d61746368000000000000000000000000000000000000000000000000602082015250565b7f455243313135353a206d696e7420746f20746865207a65726f2061646472657360008201527f7300000000000000000000000000000000000000000000000000000000000000602082015250565b600060443d10156132d95761335c565b6132e1612b32565b60043d036004823e80513d602482011167ffffffffffffffff8211171561330957505061335c565b808201805167ffffffffffffffff811115613327575050505061335c565b80602083010160043d03850181111561334457505050505061335c565b61335382602001850186612da5565b82955050505050505b90565b61336881612cbd565b811461337357600080fd5b50565b61337f81612ccf565b811461338a57600080fd5b50565b61339681612cdb565b81146133a157600080fd5b50565b6133ad81612d27565b81146133b857600080fd5b5056fea2646970667358221220454cda3114f6051bfba10ebc2549c6f2095f8e5ac4f20ef69d4ac75bf6b967a964736f6c63430008010033",
  "linkReferences": {},
  "deployedLinkReferences": {}
}